:0F03760001150001130F010A0A010914010814EF
:10035400E4FEEEC39F5009E4FD0DBD12FC0E80F2D5
:010364002276
:10036500E4FEEEC39F5009E4FD0DBD17FC0E80F2BF
:010375002265
:07029E00E53375F008A4FF31
:0202A500AC07A4
:1002A700E4FBEBC39C500EE4FA7F0B1203650ABA1A
:0502B70001F70B80EDD2
:0102BC00221F
:02031000AC0738
:10031200E4FBEBC39C500EE4FA7F371203650ABA82
:0503220001F70B80ED66
:0103270022B3
:02032800AC0720
:10032A00E4FBEBC39C500EE4FA7F6E1203650ABA33
:05033A0001F70B80ED4E
:01033F00229B
:0202BD008F317F
:1002BF00E4F532E532C39531500FE4F97F0A1203AA
:0902CF002809B901F7053280EAA3
:0102D8002203
:0202D9008F266E
:1002DB00E4F527E527C39526500FE4F97F0A1203AF
:0902EB002809B932F7052780EA61
:0102F40022E7
:02027C008F2EC3
:10027E00E4F530E530C3952E5015E4F52F7F64126A
:0F028E0002BD052FE52FC3940140F2053080E437
:01029D00223E
:0402F5008E2C8F2D8F
:1002F900900000C3E582952DE583952C50087F0178
:06030900120310A380EDB9
:01030F0022CB
:100340005389F0438901758CEEE4F58AD2A9D2AFC6
:0403500075150122FC
:0E038600AD07AC068C8C8D8AE4F515D28C2266
:03000B0002039459
:0A039400758CEE758A0075150132B4
:080003001203407F0A02031002
:10009A00E4FFFD7516FE7517FD7518FB7519F775E2
:1000AA001AEF751BDF751CBF751D7FEF04FEEED3BB
:1000BA0094075039740B2EF8E6FC740B2FF8E6FB04
:1000CA00C39C5026AD04740B2EF8A603740B2FF8AC
:1000DA00A60574162EF8E6FD74162FF8E6FC7416BB
:1000EA002EF8A60474162FF8A6050E80C10FBF07B6
:1000FA00BAE4FF740B2FF8C000E6FE740C2FF8E682
:0B010A00FDC3EE9DD000F60FBF07E81C
:0101150022C7
:1001FC00E4FC741E2CF8E6FF740B2CF8A6070CBC60
:10020C0008F012009A7F007EEE1203867580FF0FB5
:10021C00120310E4FCE4FBC374079CFA240BF8E60D
:10022C00FFEBC39F50087F011203540B80E9741637
:0F023C002AF8E652800CBC08DCE51560FCC28C89
:01024B002290
:10018D00E4F52AF52BF526F527052BE52B70020551
:10019D002A751EFD751F7D75208475217C75227D48
:1001AD0075237675247D75257D1201FCC3E52B9491
:1001BD000AE52A94005012752800752914E52915B1
:1001CD002970021528AF29800F75280075290A0599
:1001DD0029E52970020528FFAE281202F50527E54D
:0E01ED002770020526C3941EE5269400409B51
:0101FB0022E1
:10011600753309E4F9E9C3940F5002051E1201FC78
:10012600E9C3940550021533E9C394054008E994E0
:10013600465003753302E9C394464007E9944B5091
:1001460002053312029E09B90ACB7F041202D9E4D2
:10015600F9E9C3940F5002151E1201FCE9C3940578
:1001660050021533E9C394054008E99446500375D7
:100176003302E9C394464007E9944B500205331213
:06018600029E09B90ACB3C
:01018C002250
:10024C00758170E4F593F5941200037F0A12031084
:10025C007580FF7F011202D912018D7F011202D924
:10026C0030970B2097057F011203102097F280FE28
:0300000002000EED
:0C000E00787FE4F6D8FD758134020055BF
:10001A0002024CE493A3F8E493A34003F68001F2AE
:10002A0008DFF48029E493A3F85407240CC8C333E7
:10003A00C4540F4420C8834004F456800146F6DFB6
:10004A00E4800B0102040810204080900376E47ECD
:10005A00019360BCA3FF543F30E509541FFEE493AB
:10006A00A360010ECF54C025E060A840B8E493A372
:10007A00FAE493A3F8E493A3C8C582C8CAC583CA9D
:10008A00F0A3C8C582C8CAC583CADFE9DEE780BE55
:010385000077
:00000001FF
